{
  "_format": "hh-sol-artifact-1",
  "contractName": "PestToken",
  "sourceName": "contracts/PestToken_Flatten.sol",
  "abi": [
    {
      "inputs": [
        {
          "internalType": "uint256",
          "name": "cap",
          "type": "uint256"
        },
        {
          "internalType": "uint256",
          "name": "reward",
          "type": "uint256"
        }
      ],
      "stateMutability": "nonpayable",
      "type": "constructor"
    },
    {
      "inputs": [
        {
          "internalType": "uint256",
          "name": "increasedSupply",
          "type": "uint256"
        },
        {
          "internalType": "uint256",
          "name": "cap",
          "type": "uint256"
        }
      ],
      "name": "ERC20ExceededCap",
      "type": "error"
    },
    {
      "inputs": [
        {
          "internalType": "address",
          "name": "spender",
          "type": "address"
        },
        {
          "internalType": "uint256",
          "name": "allowance",
          "type": "uint256"
        },
        {
          "internalType": "uint256",
          "name": "needed",
          "type": "uint256"
        }
      ],
      "name": "ERC20InsufficientAllowance",
      "type": "error"
    },
    {
      "inputs": [
        {
          "internalType": "address",
          "name": "sender",
          "type": "address"
        },
        {
          "internalType": "uint256",
          "name": "balance",
          "type": "uint256"
        },
        {
          "internalType": "uint256",
          "name": "needed",
          "type": "uint256"
        }
      ],
      "name": "ERC20InsufficientBalance",
      "type": "error"
    },
    {
      "inputs": [
        {
          "internalType": "address",
          "name": "approver",
          "type": "address"
        }
      ],
      "name": "ERC20InvalidApprover",
      "type": "error"
    },
    {
      "inputs": [
        {
          "internalType": "uint256",
          "name": "cap",
          "type": "uint256"
        }
      ],
      "name": "ERC20InvalidCap",
      "type": "error"
    },
    {
      "inputs": [
        {
          "internalType": "address",
          "name": "receiver",
          "type": "address"
        }
      ],
      "name": "ERC20InvalidReceiver",
      "type": "error"
    },
    {
      "inputs": [
        {
          "internalType": "address",
          "name": "sender",
          "type": "address"
        }
      ],
      "name": "ERC20InvalidSender",
      "type": "error"
    },
    {
      "inputs": [
        {
          "internalType": "address",
          "name": "spender",
          "type": "address"
        }
      ],
      "name": "ERC20InvalidSpender",
      "type": "error"
    },
    {
      "anonymous": false,
      "inputs": [
        {
          "indexed": true,
          "internalType": "address",
          "name": "owner",
          "type": "address"
        },
        {
          "indexed": true,
          "internalType": "address",
          "name": "spender",
          "type": "address"
        },
        {
          "indexed": false,
          "internalType": "uint256",
          "name": "value",
          "type": "uint256"
        }
      ],
      "name": "Approval",
      "type": "event"
    },
    {
      "anonymous": false,
      "inputs": [
        {
          "indexed": true,
          "internalType": "address",
          "name": "from",
          "type": "address"
        },
        {
          "indexed": true,
          "internalType": "address",
          "name": "to",
          "type": "address"
        },
        {
          "indexed": false,
          "internalType": "uint256",
          "name": "value",
          "type": "uint256"
        }
      ],
      "name": "Transfer",
      "type": "event"
    },
    {
      "inputs": [
        {
          "internalType": "address",
          "name": "owner",
          "type": "address"
        },
        {
          "internalType": "address",
          "name": "spender",
          "type": "address"
        }
      ],
      "name": "allowance",
      "outputs": [
        {
          "internalType": "uint256",
          "name": "",
          "type": "uint256"
        }
      ],
      "stateMutability": "view",
      "type": "function"
    },
    {
      "inputs": [
        {
          "internalType": "address",
          "name": "spender",
          "type": "address"
        },
        {
          "internalType": "uint256",
          "name": "value",
          "type": "uint256"
        }
      ],
      "name": "approve",
      "outputs": [
        {
          "internalType": "bool",
          "name": "",
          "type": "bool"
        }
      ],
      "stateMutability": "nonpayable",
      "type": "function"
    },
    {
      "inputs": [
        {
          "internalType": "address",
          "name": "account",
          "type": "address"
        }
      ],
      "name": "balanceOf",
      "outputs": [
        {
          "internalType": "uint256",
          "name": "",
          "type": "uint256"
        }
      ],
      "stateMutability": "view",
      "type": "function"
    },
    {
      "inputs": [],
      "name": "blockReward",
      "outputs": [
        {
          "internalType": "uint256",
          "name": "",
          "type": "uint256"
        }
      ],
      "stateMutability": "view",
      "type": "function"
    },
    {
      "inputs": [
        {
          "internalType": "uint256",
          "name": "value",
          "type": "uint256"
        }
      ],
      "name": "burn",
      "outputs": [],
      "stateMutability": "nonpayable",
      "type": "function"
    },
    {
      "inputs": [
        {
          "internalType": "address",
          "name": "account",
          "type": "address"
        },
        {
          "internalType": "uint256",
          "name": "value",
          "type": "uint256"
        }
      ],
      "name": "burnFrom",
      "outputs": [],
      "stateMutability": "nonpayable",
      "type": "function"
    },
    {
      "inputs": [],
      "name": "cap",
      "outputs": [
        {
          "internalType": "uint256",
          "name": "",
          "type": "uint256"
        }
      ],
      "stateMutability": "view",
      "type": "function"
    },
    {
      "inputs": [],
      "name": "decimals",
      "outputs": [
        {
          "internalType": "uint8",
          "name": "",
          "type": "uint8"
        }
      ],
      "stateMutability": "view",
      "type": "function"
    },
    {
      "inputs": [
        {
          "internalType": "address",
          "name": "to",
          "type": "address"
        },
        {
          "internalType": "uint256",
          "name": "amount",
          "type": "uint256"
        }
      ],
      "name": "mint",
      "outputs": [],
      "stateMutability": "nonpayable",
      "type": "function"
    },
    {
      "inputs": [],
      "name": "name",
      "outputs": [
        {
          "internalType": "string",
          "name": "",
          "type": "string"
        }
      ],
      "stateMutability": "view",
      "type": "function"
    },
    {
      "inputs": [],
      "name": "owner",
      "outputs": [
        {
          "internalType": "address",
          "name": "",
          "type": "address"
        }
      ],
      "stateMutability": "view",
      "type": "function"
    },
    {
      "inputs": [
        {
          "internalType": "uint256",
          "name": "reward",
          "type": "uint256"
        }
      ],
      "name": "setBlockReward",
      "outputs": [],
      "stateMutability": "nonpayable",
      "type": "function"
    },
    {
      "inputs": [],
      "name": "symbol",
      "outputs": [
        {
          "internalType": "string",
          "name": "",
          "type": "string"
        }
      ],
      "stateMutability": "view",
      "type": "function"
    },
    {
      "inputs": [],
      "name": "totalSupply",
      "outputs": [
        {
          "internalType": "uint256",
          "name": "",
          "type": "uint256"
        }
      ],
      "stateMutability": "view",
      "type": "function"
    },
    {
      "inputs": [
        {
          "internalType": "address",
          "name": "to",
          "type": "address"
        },
        {
          "internalType": "uint256",
          "name": "value",
          "type": "uint256"
        }
      ],
      "name": "transfer",
      "outputs": [
        {
          "internalType": "bool",
          "name": "",
          "type": "bool"
        }
      ],
      "stateMutability": "nonpayable",
      "type": "function"
    },
    {
      "inputs": [
        {
          "internalType": "address",
          "name": "from",
          "type": "address"
        },
        {
          "internalType": "address",
          "name": "to",
          "type": "address"
        },
        {
          "internalType": "uint256",
          "name": "value",
          "type": "uint256"
        }
      ],
      "name": "transferFrom",
      "outputs": [
        {
          "internalType": "bool",
          "name": "",
          "type": "bool"
        }
      ],
      "stateMutability": "nonpayable",
      "type": "function"
    }
  ],
  "bytecode": "0x60a060405234801561001057600080fd5b506040516124003803806124008339818101604052810190610032919061067b565b61004061020660201b60201c565b600a61004c919061082a565b826100579190610875565b6040518060400160405280600981526020017f50657374546f6b656e00000000000000000000000000000000000000000000008152506040518060400160405280600381526020017f50544b000000000000000000000000000000000000000000000000000000000081525081600390816100d29190610afd565b5080600490816100e29190610afd565b5050506000810361012b5760006040517f392e1e270000000000000000000000000000000000000000000000000000000081526004016101229190610c0a565b60405180910390fd5b80608081815250505033600660006101000a81548173ffffffffffffffffffffffffffffffffffffffff021916908373ffffffffffffffffffffffffffffffffffffffff160217905550600061018561020660201b60201c565b600a610191919061082a565b6298968061019f9190610875565b90506101d3600660009054906101000a900473ffffffffffffffffffffffffffffffffffffffff168261020f60201b60201c565b6101e161020660201b60201c565b600a6101ed919061082a565b826101f89190610875565b600581905550505050610d3f565b60006012905090565b600073ffffffffffffffffffffffffffffffffffffffff168273ffffffffffffffffffffffffffffffffffffffff16036102815760006040517fec442f050000000000000000000000000000000000000000000000000000000081526004016102789190610c66565b60405180910390fd5b6102936000838361029760201b60201c565b5050565b6102a883838361034f60201b60201c565b600073ffffffffffffffffffffffffffffffffffffffff168373ffffffffffffffffffffffffffffffffffffffff160361034a5760006102ec61040760201b60201c565b905060006102fe61041160201b60201c565b9050818111156103475780826040517f9e79f85400000000000000000000000000000000000000000000000000000000815260040161033e929190610c90565b60405180910390fd5b50505b505050565b61036083838361041b60201b60201c565b600073ffffffffffffffffffffffffffffffffffffffff168373ffffffffffffffffffffffffffffffffffffffff16036104025760006103a461040760201b60201c565b905060006103b661041160201b60201c565b9050818111156103ff5780826040517f9e79f8540000000000000000000000000000000000000000000000000000000081526004016103f6929190610c90565b60405180910390fd5b50505b505050565b6000608051905090565b6000600254905090565b600073ffffffffffffffffffffffffffffffffffffffff168373ffffffffffffffffffffffffffffffffffffffff160361046d5780600260008282546104619190610cb9565b92505081905550610540565b60008060008573ffffffffffffffffffffffffffffffffffffffff1673ffffffffffffffffffffffffffffffffffffffff168152602001908152602001600020549050818110156104f9578381836040517fe450d38c0000000000000000000000000000000000000000000000000000000081526004016104f093929190610ced565b60405180910390fd5b8181036000808673ffffffffffffffffffffffffffffffffffffffff1673ffffffffffffffffffffffffffffffffffffffff16815260200190815260200160002081905550505b600073ffffffffffffffffffffffffffffffffffffffff168273ffffffffffffffffffffffffffffffffffffffff160361058957806002600082825403925050819055506105d6565b806000808473ffffffffffffffffffffffffffffffffffffffff1673ffffffffffffffffffffffffffffffffffffffff168152602001908152602001600020600082825401925050819055505b8173ffffffffffffffffffffffffffffffffffffffff168373ffffffffffffffffffffffffffffffffffffffff167fddf252ad1be2c89b69c2b068fc378daa952ba7f163c4a11628f55a4df523b3ef836040516106339190610d24565b60405180910390a3505050565b600080fd5b6000819050919050565b61065881610645565b811461066357600080fd5b50565b6000815190506106758161064f565b92915050565b6000806040838503121561069257610691610640565b5b60006106a085828601610666565b92505060206106b185828601610666565b9150509250929050565b7f4e487b7100000000000000000000000000000000000000000000000000000000600052601160045260246000fd5b60008160011c9050919050565b6000808291508390505b60018511156107415780860481111561071d5761071c6106bb565b5b600185161561072c5780820291505b808102905061073a856106ea565b9450610701565b94509492505050565b60008261075a5760019050610816565b816107685760009050610816565b816001811461077e5760028114610788576107b7565b6001915050610816565b60ff84111561079a576107996106bb565b5b8360020a9150848211156107b1576107b06106bb565b5b50610816565b5060208310610133831016604e8410600b84101617156107ec5782820a9050838111156107e7576107e66106bb565b5b610816565b6107f984848460016106f7565b925090508184048111156108105761080f6106bb565b5b81810290505b9392505050565b600060ff82169050919050565b600061083582610645565b91506108408361081d565b925061086d7fffffffffffffffffffffffffffffffffffffffffffffffffffffffffffffffff848461074a565b905092915050565b600061088082610645565b915061088b83610645565b925082820261089981610645565b915082820484148315176108b0576108af6106bb565b5b5092915050565b600081519050919050565b7f4e487b7100000000000000000000000000000000000000000000000000000000600052604160045260246000fd5b7f4e487b7100000000000000000000000000000000000000000000000000000000600052602260045260246000fd5b6000600282049050600182168061093857607f821691505b60208210810361094b5761094a6108f1565b5b50919050565b60008190508160005260206000209050919050565b60006020601f8301049050919050565b600082821b905092915050565b6000600883026109b37fffffffffffffffffffffffffffffffffffffffffffffffffffffffffffffffff82610976565b6109bd8683610976565b95508019841693508086168417925050509392505050565b6000819050919050565b60006109fa6109f56109f084610645565b6109d5565b610645565b9050919050565b6000819050919050565b610a14836109df565b610a28610a2082610a01565b848454610983565b825550505050565b600090565b610a3d610a30565b610a48818484610a0b565b505050565b5b81811015610a6c57610a61600082610a35565b600181019050610a4e565b5050565b601f821115610ab157610a8281610951565b610a8b84610966565b81016020851015610a9a578190505b610aae610aa685610966565b830182610a4d565b50505b505050565b600082821c905092915050565b6000610ad460001984600802610ab6565b1980831691505092915050565b6000610aed8383610ac3565b9150826002028217905092915050565b610b06826108b7565b67ffffffffffffffff811115610b1f57610b1e6108c2565b5b610b298254610920565b610b34828285610a70565b600060209050601f831160018114610b675760008415610b55578287015190505b610b5f8582610ae1565b865550610bc7565b601f198416610b7586610951565b60005b82811015610b9d57848901518255600182019150602085019450602081019050610b78565b86831015610bba5784890151610bb6601f891682610ac3565b8355505b6001600288020188555050505b505050505050565b6000819050919050565b6000610bf4610bef610bea84610bcf565b6109d5565b610645565b9050919050565b610c0481610bd9565b82525050565b6000602082019050610c1f6000830184610bfb565b92915050565b600073ffffffffffffffffffffffffffffffffffffffff82169050919050565b6000610c5082610c25565b9050919050565b610c6081610c45565b82525050565b6000602082019050610c7b6000830184610c57565b92915050565b610c8a81610645565b82525050565b6000604082019050610ca56000830185610c81565b610cb26020830184610c81565b9392505050565b6000610cc482610645565b9150610ccf83610645565b9250828201905080821115610ce757610ce66106bb565b5b92915050565b6000606082019050610d026000830186610c57565b610d0f6020830185610c81565b610d1c6040830184610c81565b949350505050565b6000602082019050610d396000830184610c81565b92915050565b6080516116a6610d5a600039600061051201526116a66000f3fe608060405234801561001057600080fd5b50600436106101005760003560e01c806340c10f19116100975780638da5cb5b116100665780638da5cb5b1461029b57806395d89b41146102b9578063a9059cbb146102d7578063dd62ed3e1461030757610100565b806340c10f191461021757806342966c681461023357806370a082311461024f57806379cc67901461027f57610100565b80631a18e707116100d35780631a18e7071461018f57806323b872dd146101ab578063313ce567146101db578063355274ea146101f957610100565b806306fdde0314610105578063095ea7b3146101235780630ac168a11461015357806318160ddd14610171575b600080fd5b61010d610337565b60405161011a9190611052565b60405180910390f35b61013d6004803603810190610138919061110d565b6103c9565b60405161014a9190611168565b60405180910390f35b61015b6103ec565b6040516101689190611192565b60405180910390f35b6101796103f2565b6040516101869190611192565b60405180910390f35b6101a960048036038101906101a491906111ad565b6103fc565b005b6101c560048036038101906101c091906111da565b6104d6565b6040516101d29190611168565b60405180910390f35b6101e3610505565b6040516101f09190611249565b60405180910390f35b61020161050e565b60405161020e9190611192565b60405180910390f35b610231600480360381019061022c919061110d565b610536565b005b61024d600480360381019061024891906111ad565b6105f6565b005b61026960048036038101906102649190611264565b61060a565b6040516102769190611192565b60405180910390f35b6102996004803603810190610294919061110d565b610652565b005b6102a3610672565b6040516102b091906112a0565b60405180910390f35b6102c1610698565b6040516102ce9190611052565b60405180910390f35b6102f160048036038101906102ec919061110d565b61072a565b6040516102fe9190611168565b60405180910390f35b610321600480360381019061031c91906112bb565b61074d565b60405161032e9190611192565b60405180910390f35b6060600380546103469061132a565b80601f01602080910402602001604051908101604052809291908181526020018280546103729061132a565b80156103bf5780601f10610394576101008083540402835291602001916103bf565b820191906000526020600020905b8154815290600101906020018083116103a257829003601f168201915b5050505050905090565b6000806103d46107d4565b90506103e18185856107dc565b600191505092915050565b60055481565b6000600254905090565b600660009054906101000a900473ffffffffffffffffffffffffffffffffffffffff1673ffffffffffffffffffffffffffffffffffffffff16600660009054906101000a900473ffffffffffffffffffffffffffffffffffffffff1673ffffffffffffffffffffffffffffffffffffffff16146104ae576040517f08c379a00000000000000000000000000000000000000000000000000000000081526004016104a5906113cd565b60405180910390fd5b6104b6610505565b600a6104c2919061154f565b816104cd919061159a565b60058190555050565b6000806104e16107d4565b90506104ee8582856107ee565b6104f9858585610882565b60019150509392505050565b60006012905090565b60007f0000000000000000000000000000000000000000000000000000000000000000905090565b600660009054906101000a900473ffffffffffffffffffffffffffffffffffffffff1673ffffffffffffffffffffffffffffffffffffffff16600660009054906101000a900473ffffffffffffffffffffffffffffffffffffffff1673ffffffffffffffffffffffffffffffffffffffff16146105e8576040517f08c379a00000000000000000000000000000000000000000000000000000000081526004016105df906113cd565b60405180910390fd5b6105f28282610976565b5050565b6106076106016107d4565b826109f8565b50565b60008060008373ffffffffffffffffffffffffffffffffffffffff1673ffffffffffffffffffffffffffffffffffffffff168152602001908152602001600020549050919050565b6106648261065e6107d4565b836107ee565b61066e82826109f8565b5050565b600660009054906101000a900473ffffffffffffffffffffffffffffffffffffffff1681565b6060600480546106a79061132a565b80601f01602080910402602001604051908101604052809291908181526020018280546106d39061132a565b80156107205780601f106106f557610100808354040283529160200191610720565b820191906000526020600020905b81548152906001019060200180831161070357829003601f168201915b5050505050905090565b6000806107356107d4565b9050610742818585610882565b600191505092915050565b6000600160008473ffffffffffffffffffffffffffffffffffffffff1673ffffffffffffffffffffffffffffffffffffffff16815260200190815260200160002060008373ffffffffffffffffffffffffffffffffffffffff1673ffffffffffffffffffffffffffffffffffffffff16815260200190815260200160002054905092915050565b600033905090565b6107e98383836001610a7a565b505050565b60006107fa848461074d565b90507fffffffffffffffffffffffffffffffffffffffffffffffffffffffffffffffff811461087c578181101561086c578281836040517ffb8f41b2000000000000000000000000000000000000000000000000000000008152600401610863939291906115dc565b60405180910390fd5b61087b84848484036000610a7a565b5b50505050565b600073ffffffffffffffffffffffffffffffffffffffff168373ffffffffffffffffffffffffffffffffffffffff16036108f45760006040517f96c6fd1e0000000000000000000000000000000000000000000000000000000081526004016108eb91906112a0565b60405180910390fd5b600073ffffffffffffffffffffffffffffffffffffffff168273ffffffffffffffffffffffffffffffffffffffff16036109665760006040517fec442f0500000000000000000000000000000000000000000000000000000000815260040161095d91906112a0565b60405180910390fd5b610971838383610c51565b505050565b600073ffffffffffffffffffffffffffffffffffffffff168273ffffffffffffffffffffffffffffffffffffffff16036109e85760006040517fec442f050000000000000000000000000000000000000000000000000000000081526004016109df91906112a0565b60405180910390fd5b6109f460008383610c51565b5050565b600073ffffffffffffffffffffffffffffffffffffffff168273ffffffffffffffffffffffffffffffffffffffff1603610a6a5760006040517f96c6fd1e000000000000000000000000000000000000000000000000000000008152600401610a6191906112a0565b60405180910390fd5b610a7682600083610c51565b5050565b600073ffffffffffffffffffffffffffffffffffffffff168473ffffffffffffffffffffffffffffffffffffffff1603610aec5760006040517fe602df05000000000000000000000000000000000000000000000000000000008152600401610ae391906112a0565b60405180910390fd5b600073ffffffffffffffffffffffffffffffffffffffff168373ffffffffffffffffffffffffffffffffffffffff1603610b5e5760006040517f94280d62000000000000000000000000000000000000000000000000000000008152600401610b5591906112a0565b60405180910390fd5b81600160008673ffffffffffffffffffffffffffffffffffffffff1673ffffffffffffffffffffffffffffffffffffffff16815260200190815260200160002060008573ffffffffffffffffffffffffffffffffffffffff1673ffffffffffffffffffffffffffffffffffffffff168152602001908152602001600020819055508015610c4b578273ffffffffffffffffffffffffffffffffffffffff168473ffffffffffffffffffffffffffffffffffffffff167f8c5be1e5ebec7d5bd14f71427d1e84f3dd0314c0f7b2291e5b200ac8c7c3b92584604051610c429190611192565b60405180910390a35b50505050565b610c5c838383610cf7565b600073ffffffffffffffffffffffffffffffffffffffff168373ffffffffffffffffffffffffffffffffffffffff1603610cf2576000610c9a61050e565b90506000610ca66103f2565b905081811115610cef5780826040517f9e79f854000000000000000000000000000000000000000000000000000000008152600401610ce6929190611613565b60405180910390fd5b50505b505050565b610d02838383610d9d565b600073ffffffffffffffffffffffffffffffffffffffff168373ffffffffffffffffffffffffffffffffffffffff1603610d98576000610d4061050e565b90506000610d4c6103f2565b905081811115610d955780826040517f9e79f854000000000000000000000000000000000000000000000000000000008152600401610d8c929190611613565b60405180910390fd5b50505b505050565b600073ffffffffffffffffffffffffffffffffffffffff168373ffffffffffffffffffffffffffffffffffffffff1603610def578060026000828254610de3919061163c565b92505081905550610ec2565b60008060008573ffffffffffffffffffffffffffffffffffffffff1673ffffffffffffffffffffffffffffffffffffffff16815260200190815260200160002054905081811015610e7b578381836040517fe450d38c000000000000000000000000000000000000000000000000000000008152600401610e72939291906115dc565b60405180910390fd5b8181036000808673ffffffffffffffffffffffffffffffffffffffff1673ffffffffffffffffffffffffffffffffffffffff16815260200190815260200160002081905550505b600073ffffffffffffffffffffffffffffffffffffffff168273ffffffffffffffffffffffffffffffffffffffff1603610f0b5780600260008282540392505081905550610f58565b806000808473ffffffffffffffffffffffffffffffffffffffff1673ffffffffffffffffffffffffffffffffffffffff168152602001908152602001600020600082825401925050819055505b8173ffffffffffffffffffffffffffffffffffffffff168373ffffffffffffffffffffffffffffffffffffffff167fddf252ad1be2c89b69c2b068fc378daa952ba7f163c4a11628f55a4df523b3ef83604051610fb59190611192565b60405180910390a3505050565b600081519050919050565b600082825260208201905092915050565b60005b83811015610ffc578082015181840152602081019050610fe1565b60008484015250505050565b6000601f19601f8301169050919050565b600061102482610fc2565b61102e8185610fcd565b935061103e818560208601610fde565b61104781611008565b840191505092915050565b6000602082019050818103600083015261106c8184611019565b905092915050565b600080fd5b600073ffffffffffffffffffffffffffffffffffffffff82169050919050565b60006110a482611079565b9050919050565b6110b481611099565b81146110bf57600080fd5b50565b6000813590506110d1816110ab565b92915050565b6000819050919050565b6110ea816110d7565b81146110f557600080fd5b50565b600081359050611107816110e1565b92915050565b6000806040838503121561112457611123611074565b5b6000611132858286016110c2565b9250506020611143858286016110f8565b9150509250929050565b60008115159050919050565b6111628161114d565b82525050565b600060208201905061117d6000830184611159565b92915050565b61118c816110d7565b82525050565b60006020820190506111a76000830184611183565b92915050565b6000602082840312156111c3576111c2611074565b5b60006111d1848285016110f8565b91505092915050565b6000806000606084860312156111f3576111f2611074565b5b6000611201868287016110c2565b9350506020611212868287016110c2565b9250506040611223868287016110f8565b9150509250925092565b600060ff82169050919050565b6112438161122d565b82525050565b600060208201905061125e600083018461123a565b92915050565b60006020828403121561127a57611279611074565b5b6000611288848285016110c2565b91505092915050565b61129a81611099565b82525050565b60006020820190506112b56000830184611291565b92915050565b600080604083850312156112d2576112d1611074565b5b60006112e0858286016110c2565b92505060206112f1858286016110c2565b9150509250929050565b7f4e487b7100000000000000000000000000000000000000000000000000000000600052602260045260246000fd5b6000600282049050600182168061134257607f821691505b602082108103611355576113546112fb565b5b50919050565b7f4f6e6c7920746865206f776e65722063616e2063616c6c20746865206675636e60008201527f74696f6e00000000000000000000000000000000000000000000000000000000602082015250565b60006113b7602483610fcd565b91506113c28261135b565b604082019050919050565b600060208201905081810360008301526113e6816113aa565b9050919050565b7f4e487b7100000000000000000000000000000000000000000000000000000000600052601160045260246000fd5b60008160011c9050919050565b6000808291508390505b60018511156114735780860481111561144f5761144e6113ed565b5b600185161561145e5780820291505b808102905061146c8561141c565b9450611433565b94509492505050565b60008261148c5760019050611548565b8161149a5760009050611548565b81600181146114b057600281146114ba576114e9565b6001915050611548565b60ff8411156114cc576114cb6113ed565b5b8360020a9150848211156114e3576114e26113ed565b5b50611548565b5060208310610133831016604e8410600b841016171561151e5782820a905083811115611519576115186113ed565b5b611548565b61152b8484846001611429565b92509050818404811115611542576115416113ed565b5b81810290505b9392505050565b600061155a826110d7565b91506115658361122d565b92506115927fffffffffffffffffffffffffffffffffffffffffffffffffffffffffffffffff848461147c565b905092915050565b60006115a5826110d7565b91506115b0836110d7565b92508282026115be816110d7565b915082820484148315176115d5576115d46113ed565b5b5092915050565b60006060820190506115f16000830186611291565b6115fe6020830185611183565b61160b6040830184611183565b949350505050565b60006040820190506116286000830185611183565b6116356020830184611183565b9392505050565b6000611647826110d7565b9150611652836110d7565b925082820190508082111561166a576116696113ed565b5b9291505056fea26469706673582212203d99f4511b566e61a59e08124442a0a688a3c848c574bb62259dcb8879e42f1564736f6c634300081b0033",
  "linkReferences": {},
  "deployedLinkReferences": {}
}